S0130000736572766F5F73746D33322E73726563CA
S3150800000000500020DD200008792000088120000823
S3150800001089200008912000089920000800000000A7
S31508000020000000000000000000000000A1200008F9
S31508000030AD20000800000000B9200008C52000080F
S31508000040252100082521000825210008252100086A
S31508000050252100082521000825210008252100085A
S31508000060252100082521000825210008252100084A
S31508000070252100082521000825210008252100083A
S31508000080252100082521000825210008252100082A
S31508000090252100082521000825210008252100081A
S315080000A0252100082521000825210008252100080A
S315080000B025210008252100082521000825210008FA
S315080000C025210008252100082521000825210008EA
S315080000D025210008252100082521000825210008DA
S315080000E02521000825210008252100080000000018
S315080000F000000000000000000000000000000000F2
S3110800010000000000000000005FF808F195
S3150800011010B5054C237833B9044B13B10448AFF333
S3150800012000800123237010BD880000200000000015
S31508000130C874000808B5034B1BB103490348AFF35D
S31508000140008008BD000000008C000020C87400086C
S3150800015081F0004102E000BF83F0004330B54FEA6A
S3150800016041044FEA430594EA050F08BF90EA020FD7
S315080001701FBF54EA000C55EA020C7FEA645C7FEA6A
S31508000180655C00F0E2804FEA5454D4EB5555B8BF8D
S315080001906D420CDD2C4480EA020281EA030382EAFE
S315080001A0000083EA010180EA020281EA0303362D90
S315080001B088BF30BD11F0004F4FEA01314FF4801C63
S315080001C04CEA113102D0404261EB410113F0004F75
S315080001D04FEA03334CEA133302D0524263EB43032C
S315080001E094EA050F00F0A780A4F10104D5F1200ECA
S315080001F00DDB02FA0EFC22FA05F2801841F1000125
S3150800020003FA0EF2801843FA05F359410EE0A5F1F8
S3150800021020050EF1200E012A03FA0EFC28BF4CF029
S31508000220020C43FA05F3C01851EBE37101F00045DF
S3150800023007D54FF0000EDCF1000C7EEB00006EEBEC
S315080002400101B1F5801F1BD3B1F5001F0CD3490876
S315080002505FEA30004FEA3C0C04F101044FEA4452CD
S3150800026012F5800F80F09A80BCF1004F08BF5FEA54
S31508000270500C50F1000041EB045141EA050130BD34
S315080002805FEA4C0C404141EB0101013C28BFB1F546
S31508000290801FE9D291F0000F04BF01460020B1FA91
S315080002A081F308BF2033A3F10B03B3F120020CDA64
S315080002B00C3208DD02F1140CC2F10C0201FA0CF042
S315080002C021FA02F10CE002F11402D8BFC2F1200CA7
S315080002D001FA02F120FA0CFCDCBF41EA0C0190405D
S315080002E0E41AA2BF01EB0451294330BD6FEA0404A6
S315080002F01F3C1CDA0C340EDC04F11404C4F1200291
S3150800030020FA04F001FA02F340EA030021FA04F3A2
S3150800031045EA030130BDC4F10C04C4F1200220FAF9
S3150800032002F001FA04F340EA0300294630BD21FA37
S3150800033004F0294630BD94F0000F83F4801306BFFD
S3150800034081F480110134013D4EE77FEA645C18BFF1
S315080003507FEA655C29D094EA050F08BF90EA020F88
S3150800036005D054EA000C04BF1946104630BD91EA80
S31508000370030F1EBF0021002030BD5FEA545C05D183
S315080003804000494128BF41F0004130BD14F58004C2
S315080003903CBF01F5801130BD01F0004545F0FE4136
S315080003A041F470014FF0000030BD7FEA645C1ABF6B
S315080003B0194610467FEA655C1CBF0B46024650EAA2
S315080003C0013406BF52EA033591EA030F41F40021CE
S315080003D030BD00BF90F0000F04BF0021704730B554
S315080003E04FF4806404F132044FF000054FF0000129
S315080003F050E700BF90F0000F04BF0021704730B5EA
S315080004004FF4806404F1320410F0004548BF4042BE
S315080004104FF000013EE700BF42004FEAE2014FEA13
S3150800042031014FEA02701FBF12F07F4393F07F4FEE
S3150800043081F06051704732F07F4208BF704793F0F1
S315080004407F4F04BF41F40021704730B54FF4607404
S3150800045001F0004521F000411CE700BF50EA010207
S3150800046008BF704730B54FF000050AE050EA0102B0
S3150800047008BF704730B511F0004502D5404261EB20
S3150800048041014FF4806404F132045FEA915C3FF461
S31508000490D8AE4FF003025FEADC0C18BF03325FEAFE
S315080004A0DC0C18BF033202EBDC02C2F1200300FAAF
S315080004B003FC20FA02F001FA03FE40EA0E0021FAD4
S315080004C002F11444BDE600BF70B54FF0FF0C4CF4C2
S315080004D0E06C1CEA11541DBF1CEA135594EA0C0F74
S315080004E095EA0C0F00F0DEF82C4481EA030621EAAF
S315080004F04C5123EA4C5350EA013518BF52EA0335EA
S3150800050041F4801143F4801338D0A0FB02CE4FF09B
S315080005100005E1FB02E506F00042E0FB03E54FF0CB
S315080005200006E1FB03569CF0000F18BF4EF0010EC3
S31508000530A4F1FF04B6F5007F64F5407404D25FEABF
S315080005404E0E6D4146EB060642EAC62141EA555172
S315080005504FEAC52040EA5E504FEACE2EB4F1FD0CB4
S3150800056088BFBCF5E06F1ED8BEF1004F08BF5FEA32
S31508000570500E50F1000041EB045170BD06F00046E4
S3150800058046EA010140EA020081EA0301B4EB5C0491
S31508000590C2BFD4EB0C0541EA045170BD41F4801189
S315080005A04FF0000E013C00F3AB8014F1360FDEBFAE
S315080005B0002001F0004170BDC4F10004203C35DA8A
S315080005C00C341BDC04F11404C4F1200500FA05F30D
S315080005D020FA04F001FA05F240EA020001F00042AE
S315080005E021F0004110EBD37021FA04F642EB060124
S315080005F05EEA430E08BF20EAD37070BDC4F10C044E
S31508000600C4F1200500FA04F320FA05F001FA04F211
S3150800061040EA020001F0004110EBD37041F10001FD
S315080006205EEA430E08BF20EAD37070BDC4F1200508
S3150800063000FA05F24EEA020E20FA04F301FA05F270
S3150800064043EA020321FA04F001F0004121FA04F218
S3150800065020EA020000EBD3705EEA430E08BF20EAE8
S31508000660D37070BD94F0000F0FD101F00046400022
S3150800067041EB010111F4801F08BF013CF7D041EAA4
S31508000680060195F0000F18BF704703F000465200A8
S3150800069043EB030313F4801F08BF013DF7D043EA79
S315080006A00603704794EA0C0F0CEA135518BF95EA2F
S315080006B00C0F0CD050EA410618BF52EA4306D1D1B6
S315080006C081EA030101F000414FF0000070BD50EAD5
S315080006D0410606BF1046194652EA430619D094EA5F
S315080006E00C0F02D150EA013613D195EA0C0F05D149
S315080006F052EA03361CBF104619460AD181EA03019D
S3150800070001F0004141F0FE4141F470014FF0000054
S3150800071070BD41F0FE4141F4780170BD70B54FF0EF
S31508000720FF0C4CF4E06C1CEA11541DBF1CEA13556F
S3150800073094EA0C0F95EA0C0F00F0A7F8A4EB050451
S3150800074081EA030E52EA03354FEA013100F0888048
S315080007504FEA03334FF0805545EA131343EA126311
S315080007604FEA022245EA111545EA10654FEA0026C6
S315080007700EF000419D4208BF964244F1FD0404F57F
S31508000780407402D25B084FEA3202B61A65EB0305DB
S315080007905B084FEA32024FF480104FF4002CB6EB98
S315080007A0020E75EB030E22BFB61A754640EA0C0018
S315080007B05B084FEA3202B6EB020E75EB030E22BF58
S315080007C0B61A754640EA5C005B084FEA3202B6EB99
S315080007D0020E75EB030E22BFB61A754640EA9C0058
S315080007E05B084FEA3202B6EB020E75EB030E22BF28
S315080007F0B61A754640EADC0055EA060E18D04FEAE6
S31508000800051545EA16754FEA06164FEAC30343EA85
S3150800081052734FEAC2025FEA1C1CC0D111F4801F52
S315080008200BD141EA00014FF000004FF0004CB6E74B
S3150800083011F4801F04BF01430020B4F1FD0C88BFEA
S31508000840BCF5E06F3FF6AFAEB5EB030C04BFB6EBF5
S31508000850020C5FEA500C50F1000041EB045170BDE8
S315080008600EF0004E4EEA113114EB5C04C2BFD4EB15
S315080008700C0541EA045170BD41F480114FF0000E99
S31508000880013C90E645EA060E8DE60CEA135594EA15
S315080008900C0F08BF95EA0C0F3FF43BAF94EA0C0F18
S315080008A00AD150EA01347FF434AF95EA0C0F7FF48D
S315080008B025AF104619462CE795EA0C0F06D152EAE1
S315080008C003353FF4FDAE1046194622E750EA4106C5
S315080008D018BF52EA43067FF4C5AE50EA41047FF4D6
S315080008E00DAF52EA43057FF4EBAE12E74FF0FF3C3B
S315080008F006E000BF4FF0010C02E000BF4FF0010C0C
S315080009004DF804CD4FEA410C7FEA6C5C4FEA430C84
S3150800091018BF7FEA6C5C1BD001B050EA410C0CBFD3
S3150800092052EA430C91EA030F02BF90EA020F002035
S31508000930704710F1000F91EA030F58BF994208BF9C
S3150800094090422CBFD8176FEAE37040F00100704759
S315080009504FEA410C7FEA6C5C02D150EA013C07D1B0
S315080009604FEA430C7FEA6C5CD6D152EA033CD3D0FB
S315080009705DF8040B704700BF8446104662468C46F5
S315080009801946634600E000BF01B5FFF7B7FF002828
S3150800099048BF10F1000F01BD4DF808EDFFF7F4FF51
S315080009A00CBF012000205DF808FB00BF4DF808EDDC
S315080009B0FFF7EAFF34BF012000205DF808FB00BFFF
S315080009C04DF808EDFFF7E0FF94BF012000205DF821
S315080009D008FB00BF4DF808EDFFF7CEFF94BF0120D6
S315080009E000205DF808FB00BF4DF808EDFFF7C4FFCF
S315080009F034BF012000205DF808FB00BF4FEA410C18
S31508000A007FEA6C5C02D150EA013C0AD14FEA430CFA
S31508000A107FEA6C5C02D152EA033C02D14FF0000037
S31508000A2070474FF0010070474FEA410212F5001275
S31508000A3015D211D56FF47873B3EB625212D94FEA17
S31508000A40C12343F0004343EA505311F0004F23FA01
S31508000A5002F018BF404270474FF00000704750EA56
S31508000A60013005D111F0004008BF6FF00040704713
S31508000A704FF00000704700BF4FEA4102B2F1E04371
S31508000A8024BFB3F5001CDCF1FE5C0DD901F0004C67
S31508000A904FEAC0024CEA5070B2F1004F40EB8300B7
S31508000AA008BF20F00100704711F0804F21D113F1E3
S31508000AB03872BCBF01F00040704741F480114FEA1C
S31508000AC05252C2F11802C2F1200C10FA0CF320FAA5
S31508000AD002F018BF40F001004FEAC1234FEAD323C2
S31508000AE003FA0CFC40EA0C0023FA02F34FEA43032C
S31508000AF0CCE77FEA625307D150EA01331EBF4FF0B5
S31508000B00FE4040F44000704701F0004040F0FE40CF
S31508000B1040F40000704700BF80F0004002E000BFCC
S31508000B2081F0004142001FBF5FEA410392EA030FCA
S31508000B307FEA226C7FEA236C6AD04FEA1262D2EB14
S31508000B401363C1BFD218414048404140B8BF5B4219
S31508000B50192B88BF704710F0004F40F4000020F0B2
S31508000B607F4018BF404211F0004F41F4000121F0C8
S31508000B707F4118BF494292EA030F3FD0A2F1010212
S31508000B8041FA03FC10EB0C00C3F1200301FA03F150
S31508000B9000F0004302D5494260EB4000B0F5000F73
S31508000BA013D3B0F1807F06D340084FEA310102F132
S31508000BB00102FE2A51D2B1F1004F40EBC25008BFE4
S31508000BC020F0010040EA03007047490040EB0000AE
S31508000BD0013A28BFB0F5000FEDD2B0FA80FCACF1AF
S31508000BE0080CB2EB0C0200FA0CF0AABF00EBC250DC
S31508000BF052421843BCBFD0401843704792F0000FCA
S31508000C0081F4000106BF80F400000132013BB5E71C
S31508000C104FEA41037FEA226C18BF7FEA236C21D092
S31508000C2092EA030F04D092F0000F08BF08467047F7
S31508000C3090EA010F1CBF0020704712F07F4F04D1C5
S31508000C40400028BF40F00040704712F100723CBFD8
S31508000C5000F50000704700F0004343F0FE4040F402
S31508000C60000070477FEA226216BF08467FEA2363C0
S31508000C700146420206BF5FEA412390EA010F40F4AB
S31508000C80800070474FF0000304E000BF10F00043F7
S31508000C9048BF40425FEA000C08BF704743F09643DE
S31508000CA001464FF000001CE050EA010208BF7047F9
S31508000CB04FF000030AE000BF50EA010208BF704780
S31508000CC011F0004302D5404261EB41015FEA010C95
S31508000CD002BF84460146002043F0B64308BFA3F18D
S31508000CE08053A3F50003BCFA8CF2083AA3EBC2536F
S31508000CF010DB01FA02FC634400FA02FCC2F120028E
S31508000D00BCF1004F20FA02F243EB020008BF20F0C4
S31508000D100100704702F1200201FA02FCC2F120022A
S31508000D2050EA4C0021FA02F243EB020008BF20EA1F
S31508000D30DC7070474FF0FF0C1CEAD0521EBF1CEA4D
S31508000D40D15392EA0C0F93EA0C0F6FD01A4480EA3B
S31508000D50010C400218BF5FEA41211ED04FF0006324
S31508000D6043EA501043EA5111A0FB01310CF0004050
S31508000D70B1F5000F3EBF490041EAD3715B0040EA76
S31508000D80010062F17F02FD2A1DD8B3F1004F40EB46
S31508000D90C25008BF20F00100704790F0000F0CF019
S31508000DA0004C08BF49024CEA502040EA51207F3ADD
S31508000DB0C2BFD2F1FF0340EAC250704740F40000B8
S31508000DC04FF00003013A5DDC12F1190FDCBF00F0A9
S31508000DD000407047C2F10002410021FA02F1C2F157
S31508000DE0200200FA02FC5FEA310040F1000053EAF3
S31508000DF04C0308BF20EADC70704792F0000F00F041
S31508000E00004C02BF400010F4000F013AF9D040EA46
S31508000E100C0093F0000F01F0004C02BF490011F4DA
S31508000E20000F013BF9D041EA0C018FE70CEAD153D8
S31508000E3092EA0C0F18BF93EA0C0F0AD030F0004C58
S31508000E4018BF31F0004CD8D180EA010000F000400C
S31508000E50704790F0000F17BF90F0004F084691F0CA
S31508000E60000F91F0004F14D092EA0C0F01D1420204
S31508000E700FD193EA0C0F03D14B0218BF084608D1CD
S31508000E8080EA010000F0004040F0FE4040F4000017
S31508000E90704740F0FE4040F4400070474FF0FF0CAA
S31508000EA01CEAD0521EBF1CEAD15392EA0C0F93EAF1
S31508000EB00C0F69D0A2EB030280EA010C49024FEA43
S31508000EC0402037D04FF0805343EA111143EA1013FC
S31508000ED00CF000408B4238BF5B0042F17D024FF4B4
S31508000EE0000C8B4224BF5B1A40EA0C00B3EB510F8F
S31508000EF024BFA3EB510340EA5C00B3EB910F24BF78
S31508000F00A3EB910340EA9C00B3EBD10F24BFA3EBFC
S31508000F10D10340EADC001B0118BF5FEA1C1CE0D1C4
S31508000F20FD2A3FF650AF8B4240EBC25008BF20F077
S31508000F30010070470CF0004C4CEA50207F32C2BFCB
S31508000F40D2F1FF0340EAC250704740F400004FF068
S31508000F500003013A37E792F0000F00F0004C02BF99
S31508000F60400010F4000F013AF9D040EA0C0093F063
S31508000F70000F01F0004C02BF490011F4000F013BBD
S31508000F80F9D041EA0C0195E70CEAD15392EA0C0F25
S31508000F9008D142027FF47DAF93EA0C0F7FF470AF5D
S31508000FA0084676E793EA0C0F04D14B023FF44CAFA0
S31508000FB008466EE730F0004C18BF31F0004CCAD135
S31508000FC030F000427FF45CAF31F000437FF43CAF71
S31508000FD05FE700BF4FF0FF3C06E000BF4FF0010C93
S31508000FE002E000BF4FF0010C4DF804CD4FEA400275
S31508000FF04FEA41037FEA226C18BF7FEA236C11D0BF
S3150800100001B052EA530C18BF90EA010F58BFB2EB71
S31508001010030088BFC81738BF6FEAE17018BF40F0F1
S31508001020010070477FEA226C02D15FEA402C05D1A5
S315080010307FEA236CE4D15FEA412CE1D05DF8040B2A
S31508001040704700BF844608466146FFE70FB5FFF7BD
S31508001050C9FF002848BF10F1000F0FBD4DF808ED75
S31508001060FFF7F4FF0CBF012000205DF808FB00BF66
S315080010704DF808EDFFF7EAFF34BF012000205DF8C0
S3150800108008FB00BF4DF808EDFFF7E0FF94BF01200D
S3150800109000205DF808FB00BF4DF808EDFFF7D2FF0A
S315080010A094BF012000205DF808FB00BF4DF808ED4D
S315080010B0FFF7C8FF34BF012000205DF808FB00BF1A
S315080010C042000ED2B2F1FE4F0BD34FF09E03B3EBA4
S315080010D0126209D44FEA002343F0004323FA02F0D0
S315080010E070474FF00000704712F1610F01D14202BC
S315080010F002D14FF0FF3070474FF00000704700BF35
S3150800110080B588B004AF0346FB710B46BB71134626
S315080011107B71FB799AB20A2302930123019307F1A3
S315080011200F03009301238021194801F029FD7B79DB
S31508001130002B0DD1BB79012202FA03F35BB2DB4324
S315080011405AB2FB7B5BB213405BB2DBB2FB730AE0BD
S31508001150BB79012202FA03F35AB2FB7B5BB2134353
S315080011605BB2DBB2FB73FB799AB20A2302930123C3
S31508001170019307F10F03009301238021044801F02E
S3150800118005FC012001F032F800BF1037BD4680BDCE
S31508001190A400002080B588B004AF0346FB80FB8816
S315080011A040F2F552934202D90323FB730CE0FB8805
S315080011B0182B02D8FF23FB7306E0FB881B03124A91
S315080011C092FBF3F3DBB2FB73012204210020FFF745
S315080011D097FF0A2302930123019307F10F03009354
S315080011E00123FE228021094801F0D0FB00220421B8
S315080011F00020FFF785FF012207210020FFF780FF67
S3150800120000BF1037BD4680BD40787D01A400002090
S3150800121080B582B000AF0346FB80FB881846FFF70F
S31508001220B9FF012205210020FFF76AFF00BF083732
S31508001230BD4680BD80B588B004AF0346FB710B463A
S31508001240BB8013467B80FB799B00DBB20633FB73BE
S31508001250BB88DBB23B72BB881B0A9BB2DBB27B72D4
S315080012607B88DBB2BB727B881B0A9BB2DBB2FB7244
S31508001270FB7B9AB20A2302930423019307F108031E
S31508001280009301238021034801F080FB00BF10373B
S31508001290BD4680BDA400002080B584B000AF0346DB
S315080012A03960FB713868FFF7B7F817A3D3E900234D
S315080012B0FFF70AF902460B46104619464FF0000298
S315080012C0154BFFF72BFA02460B461046194610A394
S315080012D0D3E90023FEF742FF02460B46104619469D
S315080012E0FFF7CAFB0346FB60F868FFF7E9FE03460B
S315080012F09AB2FB7900211846FFF79CFF00BF10370A
S31508001300BD4680BDAFF3008000000000009879401C
S315080013109A99999999995940008066400000000069
S31508001320B0B58AB000AFF860B9607A603B60F8681B
S31508001330FFF772F84FF000024FF0804303F0F4FA1B
S3150800134004460D467868FFF767F84FF000024FF03D
S31508001350804303F0E9FA02460B4620462946FEF783
S31508001360FDFE02460B461046194603F045FB0246AB
S315080013700B4610461946FFF77FFB03467B62796AE0
S315080013807868FFF78BFD03461846FFF745F80246CF
S315080013900B461046194603F09DFA9DA3D3E9002390
S315080013A0FFF792F802460B4610461946FFF764FB0C
S315080013B002463B681A60984B1946786AFFF7B0FBF5
S315080013C003463B62386AFFF727F84FF000024FF0F2
S315080013D0804303F0A9FA04460D46B868FFF71CF8DF
S315080013E04FF000024FF0804303F09EFA02460B4688
S315080013F020462946FEF7B2FE02460B461046194617
S3150800140003F0FAFA02460B4610461946FFF734FB74
S315080014100346FB61814B1846FEF7FEFF4FF00002BC
S315080014204FF0804303F080FA04460D467C4B18467D
S31508001430FEF7F2FF4FF000024FF0804303F074FA14
S3150800144002460B4620462946FEF788FE02460B460C
S3150800145014461D46F869FEF7DFFF4FF000024FF00D
S31508001460804303F061FA02460B4620462946FEF7FA
S3150800147073FE02460B4614461D46684B1946184627
S31508001480FFF750FB03461A46654B19461046FFF709
S3150800149051FC03461846FEF7BFFF02460B46204698
S315080014A02946FFF73BF902460B461046194603F054
S315080014B0E9F957A3D3E90023FFF706F802460B46D6
S315080014C010461946FFF7D8FA0246FB6B1A60F86908
S315080014D0FEF7A2FF4FF000024FF0804303F024FA14
S315080014E004460D464E4B1846FEF796FF4FF000028F
S315080014F04FF0804303F018FA02460B462046294669
S31508001500FEF72CFE02460B4614461D46434B18466C
S31508001510FEF782FF4FF000024FF0804303F004FA13
S3150800152002460B4620462946FEF716FE02460B469D
S3150800153014461D46FB6919461846FFF7F3FA034693
S315080015401A46374B19461046FFF7F4FB034618466A
S31508001550FEF762FF02460B4620462946FFF7DEF8ED
S3150800156002460B461046194603F08CF928A3D3E920
S315080015700023FEF7A9FF02460B4610461946FFF759
S315080015807BFA0346BB61B868FEF746FF04460D467C
S31508001590386AFEF741FF02460B462046294603F005
S315080015A0C1F91BA3D3E90023FEF78EFF02460B46BB
S315080015B010461946FFF760FA03467B617969B869F0
S315080015C0FFF7AEFA03461A46BB6B1A603B681B6800
S315080015D014491846FFF7A6FA03461A463B681A60E6
S315080015E0BB6B1B680F491846FFF79CFA03461A4659
S315080015F0BB6B1A60FB6B1B6819460B48FFF790FA22
S3150800160003461A46FB6B1A6000BF2837BD46B0BDB5
S3150800161000000020DCA54C400000204000004841A6
S31508001620000008410000B4420000344300000000F6
S315080016302DE9F04F8FB002AF786000F0CDFD03467C
S31508001640DAB2D54B1A70D54BFB62D44BBB62D34B7F
S315080016507B62D24B3B62D14BFB61D04BBB61CF4B1C
S315080016607B61CE4B3B61CD4BFB60CD4B1846FEF7FD
S31508001670D3FE04460D46CB4B1846FEF7CDFE8046F4
S315080016808946C94B1B681846FEF7A4FE02460B4658
S31508001690BBA1D1E90001FFF741F802460B46924685
S315080016A09B4600F099FD03461846FEF793FE024650
S315080016B00B4650465946FEF707FF02460B461046AC
S315080016C01946B1A3D3E90023FEF748FD02460B46A7
S315080016D01046194603F0B4F902460B4640464946F9
S315080016E0FEF7F2FE02460B4690469946AC4B184664
S315080016F0FEF792FE02460B4640464946FEF72EFD89
S3150800170002460B462046294603F036FA02460B46A1
S3150800171010461946FFF7B0F90346A44A1360A14BD1
S315080017201846FEF779FE04460D469F4B1B68184679
S31508001730FEF750FE02460B4691A1D1E90001FEF7DD
S31508001740EDFF02460B469046994600F045FD0346D6
S315080017501846FEF73FFE02460B4640464946FEF748
S31508001760B3FE02460B461046194689A3D3E9002361
S31508001770FEF7F4FC02460B461046194603F060F9DC
S3150800178002460B4620462946FEF79EFE02460B46B3
S3150800179010461946FFF770F90346854A1360854BCC
S315080017A01846FEF739FE04460D46814B1B68184657
S315080017B0FEF732FE804689467F497868FFF7BAFA0F
S315080017C003461846FEF728FE02460B4610461946FB
S315080017D003F080F902460B4640464946FEF774FE7A
S315080017E002460B4620462946FEF7B8FC02460B463B
S315080017F010461946FFF740F9034683F000436F4A3F
S315080018001360674B1846FEF707FE04460D46654B00
S315080018101846FEF701FE80468946634B1B68184644
S31508001820FEF7D8FD02460B4655A1D1E90001FEF7A1
S3150800183075FF02460B4692469B4600F0CDFC0346D2
S315080018401846FEF7C7FD02460B4650465946FEF7B0
S315080018503BFE02460B46104619464BA3D3E9002326
S31508001860FEF77AFC02460B461046194603F0E8F8DE
S3150800187002460B4640464946FEF726FE02460B46FA
S3150800188090469946464B1846FEF7C6FD02460B4655
S3150800189040464946FEF762FC02460B462046294664
S315080018A003F06AF902460B4610461946FFF7E4F8B4
S315080018B00346434A13603B4B1846FEF7ADFD044604
S315080018C00D46394B1B681846FEF784FD02460B4643
S315080018D02BA1D1E90001FEF721FF02460B469046EF
S315080018E0994600F079FC03461846FEF773FD024652
S315080018F00B4640464946FEF7E7FD02460B461046AC
S31508001900194603F09DF802460B4620462946FEF77F
S31508001910DBFD02460B4610461946FFF7ADF80346AF
S31508001920284A1360234B1846FEF776FD04460D46F3
S31508001930244B1B681846FEF76FFD804689461E49EC
S315080019407868FFF7F7F903461846FEF765FD02467D
S315080019500B461046194603F0BDF802460B464046AC
S315080019604946FEF7B1FD02460B4620462946FEF7D4
S31508001970F3FB02460B46104626E000BFAFF3008095
S31508001980112D4454FB211940112D4454FB21F93FD4
S31508001990112D4454FB210940400100200000B442A7
S315080019A0000048410000A04000000020140000206C
S315080019B0480100200000304135FA8E3C1000002016
S315080019C00C000020440100201946FFF755F803468D
S315080019D0A54A1360A54B1E68A54BD3F80080A54BF6
S315080019E01B681846FEF718FD04460D46A249786896
S315080019F0FFF7A0F903461846FEF70EFD02460B460A
S31508001A001046194603F01CF802460B46204629469E
S31508001A10FEF75AFD02460B4610461946FFF72CF804
S31508001A20014607F12C0207F12403019307F1280365
S31508001A30009313460A4641463046FFF771FC8A4B27
S31508001A401E688E4BD3F800808D4B1B681846FEF730
S31508001A50E3FC04460D4688497868FFF76BF90346A8
S31508001A601846FEF7D9FC02460B461046194602F000
S31508001A70E7FF02460B4620462946FEF725FD0246A5
S31508001A800B4610461946FEF7F7FF014607F12002F6
S31508001A9007F11803019307F11C03009313460A463E
S31508001AA041463046FFF73CFC764B1846FEF7B4FC39
S31508001AB004460D466F4B1B681846FEF7ADFC80467C
S31508001AC0894671497868FFF72BF803466A4918462C
S31508001AD0FFF730F903461846FEF79EFC02460B460A
S31508001AE01046194602F0F6FF02460B46404649469E
S31508001AF0FEF7EAFC02460B4620462946FEF72EFB71
S31508001B0002460B4610461946FEF7B6FF034683F013
S31508001B1000465A4BD3F80080594B1B681846FEF707
S31508001B207BFC04460D4659497868FEF7F9FF0346DB
S31508001B3051491846FFF7FEF803461846FEF76CFCAF
S31508001B4002460B461046194602F07AFF02460B4635
S31508001B5020462946FEF7B8FC02460B4610461946AB
S31508001B60FEF78AFF014607F1140207F10C030193F9
S31508001B7007F11003009313460A4641463046FFF71D
S31508001B80CFFB5CE00823DBB23A6A11461846FFF73A
S31508001B9083FB0923DBB2FA6911461846FFF77CFB7B
S31508001BA00A23DBB2BA6911461846FFF775FB00230C
S31508001BB0DCB2FB6A19463648FEF7B2FF03461946F9
S31508001BC02046FFF769FB0123DCB2BB6A1946304899
S31508001BD0FEF7A6FF034619462046FFF75DFB0223DC
S31508001BE0DCB27B6A19462A48FEF79AFF034619466D
S31508001BF02046FFF751FB0423DCB27B6919462448CB
S31508001C00FEF78EFF034619462046FFF745FB0523D8
S31508001C10DCB23B6919461E48FEF782FF03461946A1
S31508001C202046FFF739FB0623DCB2FB68194618483D
S31508001C30FEF776FF034619462046FFF72DFB00F010
S31508001C40CBFA0346134A12789A1A134B1B681349A0
S31508001C50B1F90010B3FBF1F39A4293D300BF00BF6A
S31508001C603437BD46BDE8F08F08000020100000207C
S31508001C70140000204801002035FA8E3C0C00002094
S31508001C804401002000003041000028420000C04105
S31508001C90000034434001002000000020040000201A
S31508001CA090B583B000AF00F03FFA00F033F800F0CB
S31508001CB0FFF800F06BF800F097F83220FFF7A8FA63
S31508001CC04FF4FA6000F092FA0F4B7B6003E04FF096
S31508001CD00000FFF7ADFC00F07FFA03461846FEF752
S31508001CE0D1FF044609497868FFF724F803461946E0
S31508001CF02046FFF7BDF90346002BE8D10421044826
S31508001D0002F0B2F900BFFDE70000204100007A4466
S31508001D10F800002080B590B000AF07F1180328221C
S31508001D200021184602F07CFD3B1D00221A605A600D
S31508001D309A60DA601A610223BB610123BB62102331
S31508001D40FB6200237B6307F11803184601F040FD88
S31508001D500346002B01D000F0CDF80F237B6000234B
S31508001D60BB600023FB6000233B6100237B613B1DB6
S31508001D700021184601F0AEFF0346002B01D000F003
S31508001D80B9F800BF4037BD4680BD000080B500AF3A
S31508001D90124B134A1A60114B124A5A600F4B002213
S31508001DA09A600E4B0022DA600C4B4FF480421A619F
S31508001DB00A4B00225A61094B00229A61074B0022FE
S31508001DC0DA61064B00221A62044800F09BFC0346BF
S31508001DD0002B01D000F08EF800BF80BDA4000020C3
S31508001DE000540040A086010080B58AB000AF07F114
S31508001DF0200300221A605A603B1D00221A605A60AE
S31508001E009A60DA601A615A619A61284B4FF08042EB
S31508001E101A60264B0F225A60244B00229A60234BE5
S31508001E2042F20F72DA60214B00221A611F4B002220
S31508001E309A611E4802F0C8F80346002B01D000F04C
S31508001E4059F800233B6200237B6207F120031946F9
S31508001E50164802F087FC0346002B01D000F04AF82A
S31508001E6060237B600023BB600023FB6000237B614B
S31508001E703B1D042219460D4802F098F90346002B2B
S31508001E8001D000F037F83B1D08221946074802F032
S31508001E908DF90346002B01D000F02CF8034800F01A
S31508001EA0BBF800BF2837BD4680BD00BFF80000203C
S31508001EB080B483B000AF0E4B9B690D4A43F0040310
S31508001EC093610B4B9B6903F004037B607B68084BAB
S31508001ED09B69074A43F008039361054B9B6903F026
S31508001EE008033B603B6800BF0C37BD4680BC7047A3
S31508001EF00010024080B400AF72B600BF00BFFDE715
S31508001F0080B485B000AF154B9B69144A43F00103B2
S31508001F109361124B9B6903F00103BB60BB680F4BCF
S31508001F20DB690E4A43F08053D3610C4BDB6903F03F
S31508001F3080537B607B680A4B5B68FB60FB6823F019
S31508001F40E063FB60FB6843F00073FB60044AFB68D0
S31508001F50536000BF1437BD4680BC7047001002406E
S31508001F600000014080B588B000AF786007F1100323
S31508001F7000221A605A609A60DA607B681B68154A04
S31508001F80934223D1144B9B69134A43F00803936188
S31508001F90114B9B6903F00803FB60FB68C0233B6198
S31508001FA012237B610323FB6107F1100319460B48D3
S31508001FB000F024FA084BDB69074A43F40013D3619F
S31508001FC0054BDB6903F40013BB60BB6800BF203711
S31508001FD0BD4680BD0054004000100240000C014080
S31508001FE080B485B000AF78607B681B68B3F1804F1A
S31508001FF00BD1084BDB69074A43F00103D361054B54
S31508002000DB6903F00103FB60FB6800BF1437BD46BC
S3150800201080BC70470010024080B588B000AF786079
S3150800202007F1100300221A605A609A60DA607B682A
S315080020301B68B3F1804F17D10D4B9B690C4A43F0CF
S31508002040040393610A4B9B6903F00403FB60FB6876
S3150800205006233B6102237B610223FB6107F1100320
S315080020601946044800F0CAF900BF2037BD4680BDAE
S31508002070001002400008014080B400AF00BFFDE731
S3150800208080B400AF00BFFDE780B400AF00BFFDE736
S3150800209080B400AF00BFFDE780B400AF00BFFDE726
S315080020A080B400AF00BFBD4680BC704780B400AFA7
S315080020B000BFBD4680BC704780B400AF00BFBD46B8
S315080020C080BC704780B500AF00F074F800BF80BDD3
S315080020D080B400AF00BFBD4680BC7047FFF7F8FF6D
S315080020E00B480C490C4A002302E0D458C450043368
S315080020F0C4188C42F9D3094A094C002301E013603D
S315080021000432A242FBD302F099FBFFF7C9FD7047E0
S315080021100000002088000020907700088800002032
S3150800212088020020FEE7000080B500AF084B1B6858
S31508002130074A43F010031360032000F02BF90F2021
S3150800214000F008F8FFF7DCFE0023184680BD00BF44
S315080021500020024080B582B000AF7860124B1A6842
S31508002160124B1B7819464FF47A73B3FBF1F3B2FBA3
S31508002170F3F3184600F035F90346002B01D0012386
S315080021800EE07B680F2B0AD8002279684FF0FF30E3
S3150800219000F00BF9064A7B681360002300E0012370
S315080021A018460837BD4680BD1800002020000020CC
S315080021B01C00002080B400AF054B1B781A46054B5F
S315080021C01B681344034A136000BFBD4680BC7047B2
S315080021D0200000204C01002080B400AF024B1B6891
S315080021E01846BD4680BC70474C01002080B584B0B7
S315080021F000AF7860FFF7F0FFB8607B68FB60FB68AC
S31508002200B3F1FF3F05D00A4B1B781A46FB68134407
S31508002210FB6000BFFFF7E0FF0246BB68D31AFA6807
S315080022209A42F7D800BF00BF1037BD4680BD00BF31
S315080022302000002080B485B000AF78607B6803F08A
S315080022400703FB600C4BDB68BB60BA684FF6FF03FD
S315080022501340BB60FB681A02BB68134343F0BF63B5
S3150800226043F40033BB60044ABB68D36000BF14372D
S31508002270BD4680BC704700BF00ED00E080B400AFEB
S31508002280044BDB681B0A03F007031846BD4680BCEF
S31508002290704700BF00ED00E080B483B000AF03468E
S315080022A03960FB7197F90730002B0ADB3B68DAB215
S315080022B00C4997F907301201D2B20B4483F8002370
S315080022C00AE03B68DAB20849FB7903F00F03043BDE
S315080022D01201D2B20B441A7600BF0C37BD4680BC39
S315080022E0704700BF00E100E000ED00E080B489B06F
S315080022F000AFF860B9607A60FB6803F00703FB611A
S31508002300FB69C3F10703042B28BF0423BB61FB69E0
S315080023100433062B02D9FB69033B00E000237B61EB
S315080023204FF0FF32BB6902FA03F3DA43BB681A407F
S315080023307B699A404FF0FF317B6901FA03F3D94371
S315080023407B680B40134318462437BD4680BC70474C
S3150800235080B582B000AF78607B68013BB3F1807FBF
S3150800236001D301230FE00A4A7B68013B53600F2122
S315080023704FF0FF30FFF790FF054B00229A60044BA1
S3150800238007221A60002318460837BD4680BD00BFDD
S3150800239010E000E080B582B000AF78607868FFF79B
S315080023A049FF00BF0837BD4680BD80B586B000AF7F
S315080023B00346B9607A60FB7300237B61FFF75EFF13
S315080023C078617A68B9687869FFF790FF024697F9E5
S315080023D00F3011461846FFF75FFF00BF1837BD4696
S315080023E080BD80B582B000AF78607868FFF7B0FF2F
S315080023F0034618460837BD4680BD000080B48BB03A
S3150800240000AF7860396000237B6200233B6269E194
S3150800241001227B6A02FA03F3FB613B681B68FA69CF
S315080024201340BB61BA69FB699A4240F058813B6820
S315080024305B689A4A93425ED0984A934275D8984AFE
S31508002440934258D0964A93426FD8964A934252D0AE
S31508002450944A934269D8944A93424CD0924A9342FA
S3150800246063D8924A934246D0904A93425DD8122B3B
S315080024702AD8122B59D801A252F823F0F7240008BB
S31508002480D1240008E3240008252500082B25000888
S315080024902B2500082B2500082B2500082B250008CE
S315080024A02B2500082B2500082B2500082B250008BE
S315080024B02B2500082B2500082B2500082B250008AE
S315080024C0D9240008ED240008794A934213D02CE059
S315080024D03B68DB683B6229E03B68DB6804333B62A8
S315080024E024E03B68DB6808333B621FE03B68DB6837
S315080024F00C333B621AE03B689B68002B02D104232D
S315080025003B6213E03B689B68012B05D108233B62BD
S315080025107B68FA691A6109E008233B627B68FA69F5
S315080025205A6103E000233B6200E000BFBB69FF2B52
S3150800253001D87B6801E07B6804337B61BB69FF2BAC
S3150800254002D87B6A9B0002E07B6A083B9B003B61E2
S315080025507B691A680F213B6901FA03F3DB431A40CA
S31508002560396A3B6901FA03F31A437B691A603B68C7
S315080025705B6803F08053002B00F0B1804D4B9B69DC
S315080025804C4A43F0010393614A4B9B6903F00103EC
S31508002590BB60BB68484A7B6A9B08023352F8233003
S315080025A0FB607B6A03F003039B000F2202FA03F326
S315080025B0DB43FA681340FB607B68404A934213D0BA
S315080025C07B683F4A93420DD07B683E4A934207D0C8
S315080025D07B683D4A934201D1032306E0042304E0C5
S315080025E0022302E0012300E000237A6A02F00302D4
S315080025F092009340FA681343FB602F497B6A9B0855
S315080026000233FA6841F823203B685B6803F48013B9
S31508002610002B06D02D4B9A682C49BB6913438B6057
S3150800262006E02A4B9A68BB69DB43284913408B604E
S315080026303B685B6803F40013002B06D0234BDA686B
S315080026402249BB691343CB6006E0204BDA68BB69B5
S31508002650DB431E491340CB603B685B6803F40033D9
S31508002660002B06D0194B5A681849BB6913434B60AF
S3150800267006E0164B5A68BB69DB43144913404B60A6
S315080026803B685B6803F48033002B21D00F4B1A6834
S315080026900E49BB6913430B6021E000BF00003210EE
S315080026A00000311000002210000021100000121056
S315080026B0000011100010024000000140000801400F
S315080026C0000C0140001001400014014000040140C4
S315080026D00B4B1A68BB69DB43094913400B607B6ADD
S315080026E001337B623B681A687B6A22FA03F3002B84
S315080026F07FF48EAE00BF00BF2C37BD4680BC704746
S315080027000004014080B584B000AF78607B68002B78
S3150800271001D101232BE17B6893F83D30DBB2002B16
S3150800272006D17B68002283F83C207868FFF71AFCFC
S315080027307B68242283F83D207B681B681A687B68BF
S315080027401B6822F001021A607B681B681A687B689E
S315080027501B6842F400421A607B681B681A687B682B
S315080027601B6822F400421A6001F0FCFBF8607B68E3
S315080027705B68814A934207D8FB68804A934294BFB4
S3150800278001230023DBB206E0FB687D4A934294BF2F
S3150800279001230023DBB2002B01D00123E7E0FB680D
S315080027A0784AA2FB03239B0CBB607B681B685B68AB
S315080027B023F03F017B681B68BA680A435A607B6846
S315080027C01B681B6A23F03F017B685B686A4A934271
S315080027D002D8BB68013309E0BB684FF4967202FB66
S315080027E003F3694AA2FB03239B0901337A6812683B
S315080027F00B4313627B681B68DB6923F44F4222F0A4
S31508002800FF027B685B685C498B4219D8FB68591ED6
S315080028107B685B685B00B1FBF3F3591C40F6FC73FD
S315080028200B40002B0AD0FB68591E7B685B685B006F
S31508002830B1FBF3F30133C3F30B0351E004234FE079
S315080028407B689B68002B11D1FB68581E7B6859680A
S315080028500B465B000B44B0FBF3F30133C3F30B03E6
S31508002860002B0CBF01230023DBB212E0FB68581EC5
S315080028707B6859680B469B000B4499000B44B0FBD8
S31508002880F3F30133C3F30B03002B0CBF012300231F
S31508002890DBB2002B01D0012322E07B689B68002B6A
S315080028A00ED1FB68581E7B6859680B465B000B44C3
S315080028B0B0FBF3F30133C3F30B0343F400430FE018
S315080028C0FB68581E7B6859680B469B000B449900A9
S315080028D00B44B0FBF3F30133C3F30B0343F4404358
S315080028E0796809681343CB617B681B681B6823F00A
S315080028F0C0017B68DA697B681B6A1A437B681B68B8
S315080029000A431A607B681B689B6823F4034323F019
S31508002910FF037A6811697A68D26811437A6812687F
S315080029200B4393607B681B68DB6823F0FF017B68B9
S315080029305A697B689B691A437B681B680A43DA6095
S315080029407B681B681A687B681B6842F001021A607C
S315080029507B6800221A647B68202283F83D207B6806
S3150800296000221A637B68002283F83E20002318465B
S315080029701037BD4680BD00BFA08601007F841E00BB
S31508002980FF083D0083DE1B43D34D621080B588B037
S3150800299002AFF860084611461A4603467B810B4685
S315080029A03B811346FB80FFF717FC7861FB6893F8B9
S315080029B03D30DBB2202B40F0D9807B690093192388
S315080029C001226D49F86800F0CDFC0346002B01D0C2
S315080029D00223CCE0FB6893F83C30012B01D102239B
S315080029E0C5E0FB68012283F83C20FB681B681B686E
S315080029F003F00103012B07D0FB681B681A68FB6804
S31508002A001B6842F001021A60FB681B681A68FB68BB
S31508002A101B6822F400621A60FB68212283F83D20B5
S31508002A20FB68402283F83E20FB6800221A64FB6894
S31508002A303A6A5A62FB68BA8C5A85FB685B8D9AB209
S31508002A40FB681A85FB684D4ADA62F8883A897989FB
S31508002A507B690193BB6A00930346F86800F004FBA0
S31508002A600346002B52D0012381E07A69B96AF868D7
S31508002A7000F092FD0346002B0DD0FB681B6C042B5F
S31508002A8007D1FB681B681A68FB681B6842F400726A
S31508002A901A6001236BE0FB685B6A1A78FB681B689F
S31508002AA01A61FB685B6A5A1CFB685A62FB681B8DD5
S31508002AB0013B9AB2FB681A85FB685B8D9BB2013BAA
S31508002AC09AB2FB685A85FB681B685B6903F00403C6
S31508002AD0042B1BD1FB681B8D002B17D0FB685B6A88
S31508002AE01A78FB681B681A61FB685B6A5A1CFB68E4
S31508002AF05A62FB681B8D013B9AB2FB681A85FB6814
S31508002B005B8D9BB2013B9AB2FB685A85FB681B8DAD
S31508002B10002BAAD17A69B96AF86800F085FD0346E0
S31508002B20002B0DD0FB681B6C042B07D1FB681B68B8
S31508002B301A68FB681B6842F400721A60012316E0E3
S31508002B40FB681B681A68FB681B6842F400721A6007
S31508002B50FB68202283F83D20FB68002283F83E208C
S31508002B60FB68002283F83C20002300E00223184675
S31508002B701837BD4680BD00BF020010000000FFFFE9
S31508002B8080B58CB002AFF860084611461A4603466F
S31508002B907B810B463B811346FB8000233B62FFF794
S31508002BA01BFB7862FB6893F83D30DBB2202B40F0C4
S31508002BB050827B6A0093192301228249F86800F043
S31508002BC0D1FB0346002B01D0022343E2FB6893F8AE
S31508002BD03C30012B01D102233CE2FB68012283F839
S31508002BE03C20FB681B681B6803F00103012B07D018
S31508002BF0FB681B681A68FB681B6842F001021A60CA
S31508002C00FB681B681A68FB681B6822F400621A6076
S31508002C10FB68222283F83D20FB68402283F83E2089
S31508002C20FB6800221A64FB683A6B5A62FB68BA8E24
S31508002C305A85FB685B8D9AB2FB681A85FB68624AFF
S31508002C40DA62F8883A8979897B6A0193BB6B0093C3
S31508002C500346F86800F09EFA0346002B01D00123CC
S31508002C60F8E1FB681B8D002B13D10023FB61FB6881
S31508002C701B685B69FB61FB681B689B69FB61FB69F9
S31508002C80FB681B681A68FB681B6842F400721A60C6
S31508002C90CCE1FB681B8D012B1ED1FB681B681A68EB
S31508002CA0FB681B6822F480621A6072B600BF0023B4
S31508002CB0BB61FB681B685B69BB61FB681B689B693A
S31508002CC0BB61BB69FB681B681A68FB681B6842F432
S31508002CD000721A6062B635E0FB681B8D022B1ED1A6
S31508002CE0FB681B681A68FB681B6842F400621A6076
S31508002CF072B600BF00237B61FB681B685B697B615A
S31508002D00FB681B689B697B617B69FB681B681A68A3
S31508002D10FB681B6822F480621A6062B612E0FB68E0
S31508002D201B681A68FB681B6842F480621A600023F5
S31508002D303B61FB681B685B693B61FB681B689B69B9
S31508002D403B613B6972E1FB681B8D032B00F21F8117
S31508002D50FB681B8D012B23D17A6AB96BF86800F0E2
S31508002D60ABFC0346002B01D0012373E1FB681B680B
S31508002D701A69FB685B6AD2B21A70FB685B6A5A1CEE
S31508002D80FB685A62FB681B8D013B9AB2FB681A8581
S31508002D90FB685B8D9BB2013B9AB2FB685A8545E19D
S31508002DA0FB681B8D022B52D17B6A0093BB6B0022FA
S31508002DB00649F86800F0D6FA0346002B08D0012326
S31508002DC048E100BF020010000000FFFF04000100F8
S31508002DD072B600BFFB681B681A68FB681B6842F47A
S31508002DE000721A60FB681B681A69FB685B6AD2B2D4
S31508002DF01A70FB685B6A5A1CFB685A62FB681B8D73
S31508002E00013B9AB2FB681A85FB685B8D9BB2013B56
S31508002E109AB2FB685A8562B600BFFB681B681A69D6
S31508002E20FB685B6AD2B21A70FB685B6A5A1CFB685D
S31508002E305A62FB681B8D013B9AB2FB681A85FB68D0
S31508002E405B8D9BB2013B9AB2FB685A85EEE07B6AC2
S31508002E500093BB6B00228149F86800F083FA0346A9
S31508002E60002B01D00123F5E0FB681B681A68FB6894
S31508002E701B6822F480621A6072B600BFFB681B6882
S31508002E801A69FB685B6AD2B21A70FB685B6A5A1CDD
S31508002E90FB685A62FB681B8D013B9AB2FB681A8570
S31508002EA0FB685B8D9BB2013B9AB2FB685A856C4BFB
S31508002EB01B68DB086B4AA2FB03231A0A13469B000E
S31508002EC01344DA00D31A3B623B6A013B3B623B6A16
S31508002ED0002B18D1FB6800221A63FB68202283F8AE
S31508002EE03D20FB68002283F83E20FB681B6C43F0FC
S31508002EF02002FB681A6462B600BFFB68002283F8EA
S31508002F003C200123A6E0FB681B685B6903F0040309
S31508002F10042BD9D1FB681B681A68FB681B6842F446
S31508002F2000721A60FB681B681A69FB685B6AD2B292
S31508002F301A70FB685B6A5A1CFB685A62FB681B8D31
S31508002F40013B9AB2FB681A85FB685B8D9BB2013B15
S31508002F509AB2FB685A8562B600BFFB681B681A6995
S31508002F60FB685B6AD2B21A70FB685B6A5A1CFB681C
S31508002F705A62FB681B8D013B9AB2FB681A85FB688F
S31508002F805B8D9BB2013B9AB2FB685A854EE07A6A22
S31508002F90B96BF86800F090FB0346002B01D00123BB
S31508002FA058E0FB681B681A69FB685B6AD2B21A703C
S31508002FB0FB685B6A5A1CFB685A62FB681B8D013BFF
S31508002FC09AB2FB681A85FB685B8D9BB2013B9AB285
S31508002FD0FB685A85FB681B685B6903F00403042BCE
S31508002FE024D1FB681B8D032B07D1FB681B681A6865
S31508002FF0FB681B6822F480621A60FB681B681A6902
S31508003000FB685B6AD2B21A70FB685B6A5A1CFB687B
S315080030105A62FB681B8D013B9AB2FB681A85FB68EE
S315080030205B8D9BB2013B9AB2FB685A85FB681B8D88
S31508003030002B7FF488AEFB68202283F83D20FB68CE
S31508003040002283F83E20FB68002283F83C200023F8
S3150800305000E0022318462837BD4680BD040001005B
S315080030601800002089B5F81480B588B002AFF8605A
S31508003070084611461A4603467B810B463B81134692
S31508003080FB80FB681B681A68FB681B6842F4807241
S315080030901A607B6A00933B6A00224FF00111F868B8
S315080030A000F060F90346002B0DD0FB681B681B680F
S315080030B003F48073B3F5807F03D1FB684FF4007285
S315080030C01A6403235FE07B89DBB21A46FB681B6838
S315080030D002F0FE021A617B6A3A6A2D49F86800F026
S315080030E0BBF90346002B01D001234CE000237B618A
S315080030F0FB681B685B697B61FB681B689B697B6176
S315080031007B697A6A396AF86800F046FA0346002B42
S315080031100DD0FB681B6C042B07D1FB681B681A686B
S31508003120FB681B6842F400721A6001232BE0FB88D7
S31508003130012B05D13B89DAB2FB681B681A6121E0CD
S315080031403B891B0A9BB2DAB2FB681B681A617A6A6A
S31508003150396AF86800F020FA0346002B0DD0FB68A0
S315080031601B6C042B07D1FB681B681A68FB681B6875
S3150800317042F400721A60012305E03B89DAB2FB6863
S315080031801B681A61002318461837BD4680BD00BF64
S315080031900200010080B588B002AFF8600846114603
S315080031A01A4603467B810B463B811346FB80FB6828
S315080031B01B681A68FB681B6842F480621A60FB6821
S315080031C01B681A68FB681B6842F480721A607B6A7F
S315080031D000933B6A00224FF00111F86800F0C2F82C
S315080031E00346002B0DD0FB681B681B6803F480732D
S315080031F0B3F5807F03D1FB684FF400721A6403238A
S31508003200AAE07B89DBB21A46FB681B6802F0FE025D
S315080032101A617B6A3A6A5249F86800F01DF9034652
S31508003220002B01D0012397E000237B61FB681B6814
S315080032305B697B61FB681B689B697B617B697A6A52
S31508003240396AF86800F0A8F90346002B0DD0FB6828
S315080032501B6C042B07D1FB681B681A68FB681B6884
S3150800326042F400721A60012376E0FB88012B05D12F
S315080032703B89DAB2FB681B681A6121E03B891B0AA5
S315080032809BB2DAB2FB681B681A617A6A396AF8680F
S3150800329000F082F90346002B0DD0FB681B6C042B4B
S315080032A007D1FB681B681A68FB681B6842F4007242
S315080032B01A60012350E03B89DAB2FB681B681A6181
S315080032C07A6A396AF86800F067F90346002B0DD068
S315080032D0FB681B6C042B07D1FB681B681A68FB6824
S315080032E01B6842F400721A60012335E0FB681B680C
S315080032F01A68FB681B6842F480721A607B6A00933E
S315080033003B6A00224FF00111F86800F02BF80346DB
S31508003310002B0DD0FB681B681B6803F48073B3F59C
S31508003320807F03D1FB684FF400721A64032313E00D
S315080033307B89DBB243F00103DAB2FB681B681A61CA
S315080033407B6A3A6A0649F86800F086F80346002B55
S3150800335001D0012300E0002318461837BD4680BD7A
S315080033600200010080B584B000AFF860B9603B6028
S315080033701346FB7148E03B68B3F1FF3F44D0FEF7C4
S315080033802BFF0246BB69D31A3A689A4202D33B68B6
S31508003390002B39D1BB681B0CDBB2012B0DD1FB68A6
S315080033A01B685B69DA43BB6813409BB2002B0CBFF2
S315080033B001230023DBB21A460CE0FB681B689B69F5
S315080033C0DA43BB6813409BB2002B0CBF01230023D2
S315080033D0DBB21A46FB799A4216D1FB6800221A63B9
S315080033E0FB68202283F83D20FB68002283F83E20F4
S315080033F0FB681B6C43F02002FB681A64FB6800221A
S3150800340083F83C20012323E0BB681B0CDBB2012BAD
S315080034100DD1FB681B685B69DA43BB6813409BB236
S31508003420002B0CBF01230023DBB21A460CE0FB6815
S315080034301B689B69DA43BB6813409BB2002B0CBF21
S3150800344001230023DBB21A46FB799A4293D0002364
S3150800345018461037BD4680BD80B584B000AFF86009
S31508003460B9607A603B6071E0FB681B685B6903F4CE
S315080034708063B3F5806F23D1FB681B681A68FB6805
S315080034801B6842F400721A60FB681B686FF480625E
S315080034905A61FB6800221A63FB68202283F83D20E4
S315080034A0FB68002283F83E20FB681B6C43F004028D
S315080034B0FB681A64FB68002283F83C20012367E056
S315080034C07B68B3F1FF3F41D0FEF786FE02463B68B4
S315080034D0D31A7A689A4202D37B68002B36D1BB6826
S315080034E01B0CDBB2012B0CD1FB681B685B69DA434A
S315080034F0BB6813409BB2002B14BF01230023DBB229
S315080035000BE0FB681B689B69DA43BB6813409BB2F8
S31508003510002B14BF01230023DBB2002B16D0FB6857
S3150800352000221A63FB68202283F83D20FB680022EC
S3150800353083F83E20FB681B6C43F02002FB681A6484
S31508003540FB68002283F83C20012321E0BB681B0CA2
S31508003550DBB2012B0CD1FB681B685B69DA43BB68DD
S3150800356013409BB2002B14BF01230023DBB20BE0F0
S31508003570FB681B689B69DA43BB6813409BB2002B48
S3150800358014BF01230023DBB2002B7FF46DAF0023A9
S3150800359018461037BD4680BD80B584B000AFF860C8
S315080035A0B9607A6034E0F86800F0E3F80346002B67
S315080035B001D0012334E0BB68B3F1FF3F28D0FEF702
S315080035C00BFE02467B68D31ABA689A4202D3BB68D6
S315080035D0002B1DD1FB681B685B6903F08003802BF9
S315080035E016D0FB6800221A63FB68202283F83D2068
S315080035F0FB68002283F83E20FB681B6C43F0200220
S31508003600FB681A64FB68002283F83C20012307E064
S31508003610FB681B685B6903F08003802BC3D100231A
S3150800362018461037BD4680BD80B584B000AFF86037
S31508003630B9607A6034E0F86800F09BF80346002B1E
S3150800364001D0012334E0BB68B3F1FF3F28D0FEF771
S31508003650C3FD02467B68D31ABA689A4202D3BB688E
S31508003660002B1DD1FB681B685B6903F00403042B60
S3150800367016D0FB6800221A63FB68202283F83D20D7
S31508003680FB68002283F83E20FB681B6C43F020028F
S31508003690FB681A64FB68002283F83C20012307E0D4
S315080036A0FB681B685B6903F00403042BC3D1002382
S315080036B018461037BD4680BD80B584B000AFF860A7
S315080036C0B9607A6049E0FB681B685B6903F0100320
S315080036D0102B19D1FB681B686FF010025A61FB6842
S315080036E000221A63FB68202283F83D20FB6800222B
S315080036F083F83E20FB681A6CFB681A64FB68002294
S3150800370083F83C20012330E0FEF766FD02467B681D
S31508003710D31ABA689A4202D3BB68002B1DD1FB683C
S315080037201B685B6903F04003402B16D0FB68002238
S315080037301A63FB68202283F83D20FB68002283F881
S315080037403E20FB681B6C43F02002FB681A64FB688A
S31508003750002283F83C20012307E0FB681B685B69AD
S3150800376003F04003402BAED1002318461037BD4660
S3150800377080BD80B483B000AF78607B681B685B69E6
S3150800378003F48063B3F5806F1BD17B681B686FF405
S3150800379080625A617B6800221A637B68202283F85C
S315080037A03D207B68002283F83E207B681B6C43F033
S315080037B004027B681A647B68002283F83C20012394
S315080037C000E0002318460C37BD4680BC7047000051
S315080037D080B586B000AF78607B68002B01D10123E5
S315080037E072E27B681B6803F00103002B00F08780F8
S315080037F0924B5B6803F00C03042B0CD08F4B5B6871
S3150800380003F00C03082B12D18C4B5B6803F480334E
S31508003810B3F5803F0BD1894B1B6803F40033002BAB
S315080038206CD07B685B68002B68D101234CE27B680F
S315080038305B68B3F5803F06D1804B1B687F4A43F42B
S31508003840803313602EE07B685B68002B0CD17B4BC2
S315080038501B687A4A23F480331360784B1B68774ACF
S3150800386023F4802313601DE07B685B68B3F5A02F03
S315080038700CD1724B1B68714A43F4802313606F4B5B
S315080038801B686E4A43F4803313600BE06B4B1B686E
S315080038906A4A23F480331360684B1B68674A23F42B
S315080038A0802313607B685B68002B13D0FEF794FCBB
S315080038B0386108E0FEF790FC02463B69D31A642B90
S315080038C001D9032300E25D4B1B6803F40033002B88
S315080038D0F0D014E0FEF780FC386108E0FEF77CFCC7
S315080038E002463B69D31A642B01D90323ECE1534BF7
S315080038F01B6803F40033002BF0D100E000BF7B689F
S315080039001B6803F00203002B63D04C4B5B6803F083
S315080039100C03002B0BD0494B5B6803F00C03082BF8
S315080039201CD1464B5B6803F48033002B16D1434BFE
S315080039301B6803F00203002B05D07B681B69012B6B
S3150800394001D00123C0E13D4B1B6823F0F8027B68D8
S315080039505B69DB00394913430B603AE07B681B69F6
S31508003960002B20D0364B01221A60FEF735FC386151
S3150800397008E0FEF731FC02463B69D31A022B01D94F
S315080039800323A1E12D4B1B6803F00203002BF0D0A3
S315080039902A4B1B6823F0F8027B685B69DB00274922
S315080039A013430B6015E0264B00221A60FEF714FC41
S315080039B0386108E0FEF710FC02463B69D31A022B71
S315080039C001D9032380E11D4B1B6803F00203002B7A
S315080039D0F0D17B681B6803F00803002B3AD07B689C
S315080039E09B69002B19D0174B01221A60FEF7F4FBCE
S315080039F0386108E0FEF7F0FB02463B69D31A022B52
S31508003A0001D9032360E10D4B5B6A03F00203002B27
S31508003A10F0D0012000F0BAFA1CE00A4B00221A6026
S31508003A20FEF7DAFB38610FE0FEF7D6FB02463B6984
S31508003A30D31A022B08D9032346E100BF001002401F
S31508003A400000424280044242924B5B6A03F0020342
S31508003A50002BE9D17B681B6803F00403002B00F0F8
S31508003A60A6800023FB758B4BDB6903F08053002B84
S31508003A700DD1884BDB69874A43F08053D361854B68
S31508003A80DB6903F08053BB60BB680123FB75824B7F
S31508003A901B6803F48073002B18D17F4B1B687E4A82
S31508003AA043F480731360FEF797FB386108E0FEF76E
S31508003AB093FB02463B69D31A642B01D9032303E11E
S31508003AC0754B1B6803F48073002BF0D07B68DB68AA
S31508003AD0012B06D16F4B1B6A6E4A43F00103136232
S31508003AE02DE07B68DB68002B0CD16A4B1B6A694AA0
S31508003AF023F001031362674B1B6A664A23F004032B
S31508003B0013621CE07B68DB68052B0CD1614B1B6AD2
S31508003B10604A43F0040313625E4B1B6A5D4A43F036
S31508003B20010313620BE05B4B1B6A5A4A23F001033D
S31508003B301362584B1B6A574A23F0040313627B68C7
S31508003B40DB68002B15D0FEF747FB38610AE0FEF765
S31508003B5043FB02463B69D31A41F28832934201D9A4
S31508003B600323B1E04B4B1B6A03F00203002BEED094
S31508003B7014E0FEF731FB38610AE0FEF72DFB02463A
S31508003B803B69D31A41F28832934201D903239BE059
S31508003B90404B1B6A03F00203002BEED1FB7D012B81
S31508003BA005D13C4BDB693B4A23F08053D3617B68E4
S31508003BB0DB69002B00F08780364B5B6803F00C034B
S31508003BC0082B61D07B68DB69022B46D1334B002278
S31508003BD01A60FEF701FB386108E0FEF7FDFA0246B7
S31508003BE03B69D31A022B01D903236DE0294B1B68C5
S31508003BF003F00073002BF0D17B681B6AB3F5803F96
S31508003C0008D1244B5B6823F400327B689B68214902
S31508003C1013434B601F4B5B6823F474127B68196A65
S31508003C207B685B6A0B431B4913434B601B4B0122A2
S31508003C301A60FEF7D1FA386108E0FEF7CDFA0246B7
S31508003C403B69D31A022B01D903233DE0114B1B68AC
S31508003C5003F00073002BF0D035E0104B00221A60F9
S31508003C60FEF7BAFA386108E0FEF7B6FA02463B698B
S31508003C70D31A022B01D9032326E0064B1B6803F04F
S31508003C800073002BF0D11EE07B68DB69012B07D19E
S31508003C90012319E000100240007000406000424213
S31508003CA00B4B5B68FB60FB6803F480327B681B6A1E
S31508003CB09A4206D1FB6803F470127B685B6A9A42E3
S31508003CC001D0012300E0002318461837BD4680BD01
S31508003CD00010024080B584B000AF786039607B6818
S31508003CE0002B01D10123D0E06A4B1B6803F00703C0
S31508003CF03A689A4210D9674B1B6823F00702654950
S31508003D003B6813430B60634B1B6803F007033A6871
S31508003D109A4201D00123B8E07B681B6803F00203CE
S31508003D20002B20D07B681B6803F00403002B05D00A
S31508003D30594B5B68584A43F4E06353607B681B68D9
S31508003D4003F00803002B05D0534B5B68524A43F433
S31508003D5060535360504B5B6823F0F0027B689B68A6
S31508003D604D4913434B607B681B6803F00103002B26
S31508003D7040D07B685B68012B07D1474B1B6803F46F
S31508003D800033002B15D101237FE07B685B68022B8B
S31508003D9007D1414B1B6803F00073002B09D101239F
S31508003DA073E03D4B1B6803F00203002B01D101238E
S31508003DB06BE0394B5B6823F003027B685B68364926
S31508003DC013434B60FEF708FAF8600AE0FEF704FAB8
S31508003DD00246FB68D31A41F28832934201D903237B
S31508003DE053E02D4B5B6803F00C027B685B689B0015
S31508003DF09A42EBD1274B1B6803F007033A689A42AD
S31508003E0010D2244B1B6823F0070222493B68134350
S31508003E100B60204B1B6803F007033A689A4201D0EF
S31508003E20012332E07B681B6803F00403002B08D0EB
S31508003E30194B5B6823F4E0627B68DB681649134319
S31508003E404B607B681B6803F00803002B09D0124BF4
S31508003E505B6823F460527B681B69DB000E491343D9
S31508003E604B6000F021F802460B4B5B681B0903F018
S31508003E700F030A49CB5C22FA03F3094A1360094B7C
S31508003E801B681846FEF766F9002318461037BD4624
S31508003E9080BD00BF0020024000100240E074000808
S31508003EA0180000201C00002080B487B000AF002353
S31508003EB0FB600023BB6000237B6100237B6000233B
S31508003EC03B611E4B5B68FB60FB6803F00C03042B2D
S31508003ED002D0082B03D027E0194B3B6127E0FB688B
S31508003EE09B0C03F00F03174AD35C7B60FB6803F453
S31508003EF08033002B10D0114B5B685B0C03F0010379
S31508003F00114AD35CBB607B680D4A03FB02F2BB68AF
S31508003F10B2FBF3F37B6104E07B680C4A02FB03F314
S31508003F207B617B693B6102E0054B3B6100BF3B69F6
S31508003F3018461C37BD4680BC704700BF00100240BB
S31508003F4000127A00F87400080875000800093D0098
S31508003F5080B400AF024B1B681846BD4680BC70474C
S31508003F601800002080B500AFFFF7F2FF0246054BA8
S31508003F705B681B0A03F007030349CB5C22FA03F3C9
S31508003F80184680BD00100240F074000880B485B061
S31508003F9000AF78600A4B1B680A4AA2FB03235B0A38
S31508003FA07A6802FB03F3FB6000BFFB685A1EFA60DF
S31508003FB0002BF9D100BF00BF1437BD4680BC70473F
S31508003FC018000020D34D621080B582B000AF78602B
S31508003FD07B68002B01D1012341E07B6893F83D30D3
S31508003FE0DBB2002B06D17B68002283F83C20786878
S31508003FF0FDF7F6FF7B68022283F83D207B681A6886
S315080040007B6804331946104600F092F97B68012252
S3150800401083F846207B68012283F83E207B680122CC
S3150800402083F83F207B68012283F840207B680122C1
S3150800403083F841207B68012283F842207B680122AD
S3150800404083F843207B68012283F844207B68012299
S3150800405083F845207B68012283F83D200023184613
S315080040600837BD4680BD000080B584B000AF7860D3
S3150800407039603B68002B09D17B6893F83E30DBB288
S31508004080012B14BF01230023DBB222E03B68042B7B
S3150800409009D17B6893F83F30DBB2012B14BF0123AB
S315080040A00023DBB215E03B68082B09D17B6893F83F
S315080040B04030DBB2012B14BF01230023DBB208E03A
S315080040C07B6893F84130DBB2012B14BF0123002330
S315080040D0DBB2002B01D001235EE03B68002B04D144
S315080040E07B68022283F83E2013E03B68042B04D148
S315080040F07B68022283F83F200BE03B68082B04D13B
S315080041007B68022283F8402003E07B68022283F85A
S3150800411041207B681B6801223968184600F0FEFAC0
S315080041207B681B681E4A934207D17B681B685A6CDA
S315080041307B681B6842F400425A647B681B68184A0D
S3150800414093420ED07B681B68B3F1804F09D07B6819
S315080041501B68144A934204D07B681B68124A934230
S3150800416011D17B681B689B6803F00703FB60FB683B
S31508004170062B10D07B681B681A687B681B6842F0A0
S3150800418001021A6007E07B681B681A687B681B686F
S3150800419042F001021A60002318461037BD4680BD5A
S315080041A0002C0140000400400008004080B586B09D
S315080041B000AFF860B9607A600023FB75FB6893F876
S315080041C03C30012B01D10223AEE0FB68012283F8C3
S315080041D03C207B680C2B00F29F8001A252F823F04A
S315080041E01542000819430008194300081943000836
S315080041F055420008194300081943000819430008E6
S315080042009742000819430008194300081943000893
S31508004210D7420008FB681B68B968184600F0F6F82C
S31508004220FB681B689A69FB681B6842F008029A617A
S31508004230FB681B689A69FB681B6822F004029A618E
S31508004240FB681B689969BB681A69FB681B680A439F
S315080042509A6164E0FB681B68B968184600F03CF987
S31508004260FB681B689A69FB681B6842F400629A61DE
S31508004270FB681B689A69FB681B6822F480629A616E
S31508004280FB681B689969BB681B691A02FB681B688F
S315080042900A439A6143E0FB681B68B968184600F050
S315080042A085F9FB681B68DA69FB681B6842F0080237
S315080042B0DA61FB681B68DA69FB681B6822F004028E
S315080042C0DA61FB681B68D969BB681A69FB681B68F1
S315080042D00A43DA6123E0FB681B68B968184600F0F0
S315080042E0CFF9FB681B68DA69FB681B6842F4006251
S315080042F0DA61FB681B68DA69FB681B6822F480626E
S31508004300DA61FB681B68D969BB681B691A02FB6816
S315080043101B680A43DA6102E00123FB7500BFFB68EC
S31508004320002283F83C20FB7D18461837BD4680BD21
S3150800433080B485B000AF786039607B681B68FB6025
S315080043407B682F4A93420BD07B68B3F1804F07D026
S315080043507B682C4A934203D07B682B4A934208D148
S31508004360FB6823F07003FB603B685B68FA681343DD
S31508004370FB607B68224A93420BD07B68B3F1804F7F
S3150800438007D07B681F4A934203D07B681E4A934234
S3150800439008D1FB6823F44073FB603B68DB68FA6866
S315080043A01343FB60FB6823F080023B685B69134399
S315080043B0FB607B68FA681A603B689A687B68DA6211
S315080043C03B681A687B689A627B680D4A934203D1F8
S315080043D03B681A697B681A637B6801225A617B68A5
S315080043E01B6903F00103002B05D07B681B6923F0CA
S315080043F001027B681A6100BF1437BD4680BC70474E
S31508004400002C0140000400400008004080B487B03A
S3150800441000AF786039607B681B6A7B617B681B6AC2
S3150800442023F001027B681A627B685B683B617B68E4
S315080044309B69FB60FB6823F07003FB60FB6823F055
S315080044400303FB603B681B68FA681343FB607B69E0
S3150800445023F002037B613B689B687A6913437B619F
S315080044607B681C4A93420CD17B6923F008037B6165
S315080044703B68DB687A6913437B617B6923F0040335
S315080044807B617B68134A934211D13B6923F480739D
S315080044903B613B6923F400733B613B685B693A699E
S315080044A013433B613B689B693A6913433B617B68ED
S315080044B03A695A607B68FA689A613B685A687B6809
S315080044C05A637B687A691A6200BF1C37BD4680BC8E
S315080044D0704700BF002C014080B487B000AF7860F9
S315080044E039607B681B6A7B617B681B6A23F0100254
S315080044F07B681A627B685B683B617B689B69FB60CB
S31508004500FB6823F4E043FB60FB6823F44073FB601D
S315080045103B681B681B02FA681343FB607B6923F040
S3150800452020037B613B689B681B017A6913437B61A7
S315080045307B681D4A93420DD17B6923F080037B611A
S315080045403B68DB681B017A6913437B617B6923F04F
S3150800455040037B617B68144A934213D13B6923F479
S3150800456080633B613B6923F400633B613B685B699D
S315080045709B003A6913433B613B689B699B003A6918
S3150800458013433B617B683A695A607B68FA689A61AB
S315080045903B685A687B689A637B687A691A6200BFC7
S315080045A01C37BD4680BC7047002C014080B487B0DC
S315080045B000AF786039607B681B6A7B617B681B6A21
S315080045C023F480727B681A627B685B683B617B6850
S315080045D0DB69FB60FB6823F07003FB60FB6823F074
S315080045E00303FB603B681B68FA681343FB607B693F
S315080045F023F400737B613B689B681B027A6913434B
S315080046007B617B681D4A93420DD17B6923F4006365
S315080046107B613B68DB681B027A6913437B617B69B4
S3150800462023F480637B617B68144A934213D13B6908
S3150800463023F480533B613B6923F400533B613B6899
S315080046405B691B013A6913433B613B689B691B0124
S315080046503A6913433B617B683A695A607B68FA6832
S31508004660DA613B685A687B68DA637B687A691A623A
S3150800467000BF1C37BD4680BC704700BF002C0140F8
S3150800468080B487B000AF786039607B681B6A3B618D
S315080046907B681B6A23F480527B681A627B685B68B6
S315080046A07B617B68DB69FB60FB6823F4E043FB60A6
S315080046B0FB6823F44073FB603B681B681B02FA68BF
S315080046C01343FB603B6923F400533B613B689B68DB
S315080046D01B033A6913433B617B680F4A934209D12E
S315080046E07B6923F480437B613B685B699B017A693C
S315080046F013437B617B687A695A607B68FA68DA617A
S315080047003B685A687B681A647B683A691A6200BF14
S315080047101C37BD4680BC7047002C014080B487B06A
S3150800472000AFF860B9607A60BB6803F01F03012226
S3150800473002FA03F37B61FB681A6A7B69DB431A405A
S31508004740FB681A62FB681A6ABB6803F01F0379687C
S3150800475001FA03F31A43FB681A6200BF1C37BD4609
S3150800476080BC704780B485B000AF786039607B68DC
S3150800477093F83C30012B01D1022346E07B680122E5
S3150800478083F83C207B68022283F83D207B681B68FF
S315080047905B68FB607B681B689B68BB60FB6823F0F3
S315080047A07003FB603B681B68FA681343FB607B6811
S315080047B01B68FA685A607B681B68164A93420ED0D3
S315080047C07B681B68B3F1804F09D07B681B68124A67
S315080047D0934204D07B681B68104A93420CD1BB688D
S315080047E023F08003BB603B685B68BA681343BB6011
S315080047F07B681B68BA689A607B68012283F83D204B
S315080048007B68002283F83C20002318461437BD46EF
S3150800481080BC7047002C014000040040000800409E
S3150800482003460244934200D1704703F8011BF9E797
S31508004830014B1868704700BF2400002070B5002699
S315080048400C4D0D4C641BA410A64209D102F03CFE87
S3150800485000260A4D0A4C641BA410A64205D170BD59
S3150800486055F8043B98470136EEE755F8043B984758
S315080048700136F2E788770008887700088877000805
S315080048808C770008F8B504460D4600F009FC224668
S3150800489006460F462B4620462946FCF7AFF888B948
S315080048A02046294600F012F90022084BFCF79CF82E
S315080048B040B1FFF7BDFF212303600548BDE8F84076
S315080048C000F054B930463946F8BD00BF0000F03F45
S315080048D00A750008F8B504460D4600F031FE224672
S315080048E006460F462B4620462946FCF787F888B920
S315080048F02046294600F0EAF80022084BFCF774F82F
S3150800490040B1FFF795FF212303600548BDE8F8404D
S3150800491000F02CB930463946F8BD00BF0000F03F1C
S315080049200A75000801F008B82DE9F84314461D4633
S315080049308046894601F0D4F8224606460F462B469D
S3150800494020462946FCF75AF8C8BB002200234046F1
S315080049504946FCF721F8B8B100220023204629462B
S31508004960FCF71AF8002841D12046294600F0F8F845
S3150800497028B30022002320462946FCF717F8F0B191
S31508004980FFF756FF222319E03046394600F0E8F8CB
S31508004990C8B94046494600F0E3F8A0B12046294682
S315080049A000F0DEF878B132463B4630463946FCF729
S315080049B025F80028E4D0FFF73BFF212303603046A3
S315080049C03946BDE8F8830022002330463946FBF70E
S315080049D0E3FF0028F3D04046494600F0C1F8002816
S315080049E0EDD02046294600F0BBF8C8E70026014F5F
S315080049F0E5E700BF0000F03FF8B506460F4600F0B1
S31508004A00FFF8324604460D463B4630463946FBF724
S31508004A10F5FF90B90022002330463946FBF7C6FF5A
S31508004A2058B1FFF705FF2123002203600023104633
S31508004A301946FBF773FE04460D4620462946F8BD7F
S31508004A4030B5204D21F00044AC4202460B4687B0F3
S31508004A5006D80022002307B0BDE8304000F0A8B908
S31508004A60194DAC4203D9FBF777FB07B030BD02AA54
S31508004A7001F05EFD00F00300012809D0022811D0DC
S31508004A80B8B9DDE90423DDE9020100F091F9ECE7A4
S31508004A900090DDE90423DDE9020100F049FA01F19D
S31508004AA00041E2E7DDE90423DDE9020100F080F9CF
S31508004AB0F5E70123DDE902010093DDE9042300F0AF
S31508004AC037FAD2E7FB21E93FFFFFEF7F21F00043EA
S31508004AD01946704730B5204D21F00044AC420246D5
S31508004AE00B4687B006D8002300220093002300F067
S31508004AF01FFA04E0194DAC4203D9FBF72DFB07B0AA
S31508004B0030BD02AA01F014FD00F00300012809D007
S31508004B1002280ED0C0B9DDE9020101230093DDE9C0
S31508004B200423E4E7DDE90423DDE9020100F040F9A6
S31508004B30E5E70123DDE902010093DDE9042300F03E
S31508004B40F7F901F10041DAE7DDE90423DDE90201BD
S31508004B5000F02EF9F5E700BFFB21E93FFFFFEF7FE5
S31508004B6041F0004000F58010C00F70470020014951
S31508004B70704700BF0000F87FF8B504460D46164694
S31508004B801F4600F015F820B934463D46204629460A
S31508004B90F8BD3046394600F00BF80028F6D0324604
S31508004BA03B4620462946FBF701FF0028ECD0EDE7F7
S31508004BB010B531F000440B4619D0A1F580120E4904
S31508004BC08A420ED903F1FF4202F5E0028A4208D969
S31508004BD00A4A134207D0944207D1B0FA80F0400936
S31508004BE010BD0420FCE70320FAE70020F8E70028B8
S31508004BF0EED10220F4E700BFFFFFDF7F0000F07F61
S31508004C00674A2DE9F84F8A4306460F460B4604467F
S31508004C100ED10246FBF758FC02460B46304639468B
S31508004C20FBF79CFA06460F4630463946BDE8F88F2C
S31508004C3000290CDC21F000420243F5D089B1024676
S31508004C40FBF78AFA02460B46FBF768FDEAE70A1500
S31508004C5015D1002109E0E30A153A6405002BFAD0BC
S31508004C60F7E70A46FAE75B000131D802FBD5481E8A
S31508004C70121AC1F1200024FA00F003438C400026E2
S31508004C80A2F2FF371621D2074FF400103246C3F3BB
S31508004C90130343F480135CBF5B0003EBD4734FEA42
S31508004CA0430358BF640003EBD4737F1064001518E0
S31508004CB09D42DEBF2A185B1B3618E50F013905EB46
S31508004CC043034FEA44044FEA5000F0D10D464FF033
S31508004CD0200A4FF000409A4201EB000C02DB13D188
S31508004CE0A44511D8BCF1000F0CEB000142DA0029EB
S31508004CF040DB02F1010E9B1A7246A44588BF03F1F8
S31508004D00FF33A4EB0C0405444FEAD47CBAF1010A3C
S31508004D100CEB43034FEA44044FEA5000DBD11C4333
S31508004D201AD0204CDFF880B0D4E90001DBE9002373
S31508004D30FBF712FAD4E9008902460B464046494673
S31508004D40FBF73EFE40B1D4E90001DBE90023B5F1EB
S31508004D50FF3F11D15546013672106B08F10702F173
S31508004D607F5202F5001248BF43F00043184602EB93
S31508004D70075157E79646BEE7FBF7F0F9D4E90089ED
S31508004D8002460B4640464946FBF710FE20B1A81CD2
S31508004D9008BF01360235DFE76B1C23F00105DBE7A8
S31508004DA00000F07F8000002078000020000000004E
S31508004DB02DE9F74F21F00046B6F1795F804689461E
S31508004DC0CDE9002304D2FBF72FFE002800F08680E9
S31508004DD042464B4640464946FBF776FB00224E4B79
S31508004DE004460D46FBF770FB3FA3D3E90023824632
S31508004DF08B4620462946FBF767FB3DA3D3E90023EC
S31508004E00FBF7ACF922462B46FBF75EFB3AA3D3E940
S31508004E100023FBF7A1F922462B46FBF755FB38A3DF
S31508004E20D3E90023FBF79AF922462B46FBF74CFBFE
S31508004E3035A3D3E90023FBF78FF922462B46FBF768
S31508004E4043FB33A3D3E90023FBF788F922462B4615
S31508004E50FBF73AFB22462B46FBF736FBDDE9002338
S31508004E6004460D4640464946FBF72EFB0B460246CE
S31508004E7029462046FBF770F9284B80469E4289460C
S31508004E800ED802460B4650465946FBF765F90246C8
S31508004E9000200B462249FBF75FF903B0BDE8F08F07
S31508004EA00024204B22469E428CBF1F4DA6F50015B6
S31508004EB02B4600201A49FBF74FF9224606460F46AD
S31508004EC02B4650465946FBF747F942464B46FBF7F1
S31508004ED043F902460B4630463946DCE700201049BE
S31508004EE0DBE700BFAFF30080D43888BEE9FAA8BD77
S31508004EF0C4B1B4BD9EEE213EAD529C804F7E923E1B
S31508004F009015CB19A001FA3E7751C1166CC1563FD0
S31508004F104C5555555555A53F0000E03F3233D33F14
S31508004F200000F03F0000E93F0000D23F000000000B
S31508004F302DE9F04F1F4621F00043B3F1795F04468F
S31508004F400D46164685B003D2FBF76EFD002851D0F4
S31508004F5022462B4620462946FBF7B6FA82468B465A
S31508004F6002460B4620462946FBF7AEFA3EA3D3E98E
S31508004F7000238046894650465946FBF7A5FA3CA3C6
S31508004F80D3E90023FBF7E8F852465B46FBF79CFAA1
S31508004F9039A3D3E90023FBF7E1F852465B46FBF752
S31508004FA093FA37A3D3E90023FBF7D6F852465B46B4
S31508004FB0FBF78AFA34A3D3E90023FBF7CFF80E9B55
S31508004FC0CDE90001DBB902460B4650465946FBF7C8
S31508004FD07BFA2FA3D3E90023FBF7BEF842464B46DC
S31508004FE0FBF772FA02460B4620462946FBF7B6F847
S31508004FF004460D462046294605B0BDE8F08F002236
S3150800500030463946244BFBF75FFADDE90023CDE944
S31508005010020140464946FBF757FA02460B46DDE9C8
S315080050200201FBF799F852465B46FBF74DFA324602
S315080050303B46FBF791F816A3D3E9002306460F462D
S3150800504040464946FBF740FA02460B463046394683
S31508005050FBF784F802460B4620462946FBF77CF800
S31508005060C6E700BFAFF300807CD5CF5A3AD9E53DF5
S31508005070EB9C2B8AE6E55A3E7DFEB157E31DC73EFB
S31508005080D561C119A0012A3FA6F810111111813F57
S31508005090495555555555C53F0000E03F00000000ED
S315080050A02DE9F84FB24C21F00043A34206460F46BD
S315080050B015D903F1404303F58013034306D10029AC
S315080050C040F3028200200021BDE8F88F02460B4615
S315080050D0FBF742F802460B46FBF720FBF4E7A54C24
S315080050E0A34200F28380A44A934240F2F181024629
S315080050F00B46FBF7E9F984A3D3E9002304460D46DA
S31508005100FBF7E2F982A3D3E90023FBF727F8224647
S315080051102B46FBF7D9F980A3D3E90023FBF71CF844
S3150800512022462B46FBF7D0F97DA3D3E90023FBF7EC
S3150800513015F822462B46FBF7C7F97BA3D3E90023CC
S31508005140FBF70AF822462B46FBF7BEF978A3D3E904
S315080051500023FBF703F822462B46FBF7B5F976A39F
S31508005160D3E900238046894620462946FBF7ACF951
S3150800517073A3D3E90023FAF7EFFF22462B46FBF782
S31508005180A3F971A3D3E90023FAF7E8FF22462B46D1
S31508005190FBF79AF96EA3D3E90023FAF7DDFF224657
S315080051A02B46FBF791F90022744BFAF7D7FF024614
S315080051B00B4640464946FBF7B1FA32463B46FBF7F3
S315080051C083F902460B4664A1D1E90001FAF7C4FF48
S315080051D002460B4630463946FAF7BEFF02460B46EC
S315080051E05FA1D1E90001FAF7B7FF6DE7002980F260
S315080051F0C9800022614BFAF7B1FF0022604BFBF72A
S3150800520063F941A3D3E9002304460D46FBF75CF98D
S315080052103FA3D3E90023FAF7A1FF22462B46FBF763
S3150800522053F93DA3D3E90023FAF796FF22462B4606
S31508005230FBF74AF93AA3D3E90023FAF78FFF224688
S315080052402B46FBF741F938A3D3E90023FAF784FF85
S3150800525022462B46FBF738F935A3D3E90023FAF79C
S315080052607DFF22462B46FBF72FF933A3D3E900230C
S3150800527006460F4620462946FBF726F930A3D3E90A
S315080052800023FAF769FF22462B46FBF71DF92EA3E2
S31508005290D3E90023FAF762FF22462B46FBF714F9F7
S315080052A02BA3D3E90023FAF757FF22462B46FBF731
S315080052B00BF90022314BFAF751FF80468946204602
S315080052C02946FFF79DFC04460D4642464B463046A6
S315080052D03946FBF723FA22462B46FBF7F5F81EA3B9
S315080052E0D3E90023FAF738FF22462B46FAF736FFAA
S315080052F002460B46FAF732FF02460B461AA1D1E9D7
S31508005300000170E7AFF3008009F7FD0DE13D023FAC
S3150800531088B20175E0EF493F3B8F68B52882A43F04
S315080053205544880E55C1C93F7D6FEB0312D6D43F4D
S31508005330555555555555C53F82922EB1C5B8B33FFB
S3150800534059018D1B6C06E63FC88A599CE52A004020
S315080053504B2D8A1C273A0340075C143326A6913C3A
S31508005360182D4454FB21F93F182D4454FB210940BC
S31508005370FFFFEF3FFFFFDF3F0000603C0000F03F0C
S315080053800000E03F02460B4600206B49FAF7E4FEB0
S3150800539000226A4BFBF798F804460D46FFF730FCE7
S315080053A04DA3D3E900238946804629462046FBF7C4
S315080053B08BF84BA3D3E90023FAF7D0FE22462B46F7
S315080053C0FBF782F848A3D3E90023FAF7C5FE22467D
S315080053D02B46FBF779F846A3D3E90023FAF7BEFE76
S315080053E022462B46FBF770F843A3D3E90023FAF7C6
S315080053F0B3FE22462B46FBF767F841A3D3E9002301
S31508005400FAF7ACFE22462B46FBF75EF83EA3D3E935
S31508005410002382468B4620462946FBF755F83CA3CF
S31508005420D3E90023FAF798FE22462B46FBF74CF8F9
S3150800543039A3D3E90023FAF791FE22462B46FBF758
S3150800544043F837A3D3E90023FAF786FE22462B460C
S31508005450FBF73AF80022384BFAF780FE02460B466D
S3150800546050465946FBF75AF942464B46FBF72CF885
S31508005470002682468B4632464B4630464946FBF75F
S3150800548023F802460B4620462946FAF765FE3246B9
S3150800549004460D464B4640464946FAF75FFE024625
S315080054A00B4620462946FBF739F902460B46504675
S315080054B05946FAF753FE32464B46FAF74FFE02466E
S315080054C00B46FAF74BFEFFE517A1D1E90001FBE50C
S315080054D017A1D1E90001F7E509F7FD0DE13D023F06
S315080054E088B20175E0EF493F3B8F68B52882A43F33
S315080054F05544880E55C1C93F7D6FEB0312D6D43F7C
